:100000000C949E000C94C6000C94C6000C94C60080
:100010000C94C6000C94C6000C94C6000C94C60048
:100020000C94C6000C94C6000C94C6000C94C60038
:100030000C94C6000C94C6000C94C6000C94C60028
:100040000C9435080C94C6000C94CD030C94F0036A
:100050000C94C6000C94C6000C94C6000C94C60008
:100060000C94C8040C94C60007634236B79BD8A70B
:100070001A39685618AEBAAB558C1D3CB7CC5763CD
:10008000BD6DEDFD753EF6177231BF000000803F7B
:1000900008000000BE922449123EABAAAA2ABECD97
:1000A000CCCC4C3E00000080BEABAAAAAA3E000009
:1000B0000000BF000000803F000000000008417801
:1000C000D3BB4387D1133D190E3CC3BD4282AD2B38
:1000D0003E68EC8276BED98FE1A93E4C80EFFFBE30
:1000E00001C4FF7F3F00000000000000000024006A
:1000F00027002A0000000000250028002B0004042F
:1001000004040404040402020202020203030303BF
:10011000030301020408102040800102040810209B
:100120000102040810200000000800020100000382
:10013000040700000000000000005F0F11241FBE34
:10014000CFEFD8E0DEBFCDBF23E0A6E6B1E001C02F
:100150001D92A132B207E1F711E0A0E0B1E0E8E3BF
:10016000FBE202C005900D92A636B107D9F710E068
:10017000CEE9D0E004C02197FE010E94F10FCD39F5
:10018000D107C9F70E947F080C949A150C940000BF
:10019000CF92DF92EF92FF920F931F93CF93DF9353
:1001A0006C017A018B01C0E0D0E0CE15DF0589F04B
:1001B000D8016D918D01D601ED91FC910190F081F6
:1001C000E02DC6010995892B11F47E0102C021960C
:1001D000ECCFC701DF91CF911F910F91FF90EF906E
:1001E000DF90CF9008951F93CF93DF93F894EC01A5
:1001F000CA5FDE4F288127FD20C0DC01AE5FBE4F05
:100200001C9111965C91119770E0411103C020E0A0
:1002100030E002C020E031E0622B732BE12FF52F9C
:1002200071836083329628812F5F2883EA17FB074A
:1002300010F0FC013296ED93FC93FC01E95FFE4F58
:100240008081811108C081E080838091C1008F7618
:1002500088628093C1007894DF91CF911F910895B7
:10026000FC01E95FFE4F2081211106C0F894319610
:10027000808110827894089580E00895089508950B
:100280000895E091D2018091D101E81730F4F0E0B7
:10029000ED52FE4F808190E008958FEF9FEF08951B
:1002A0009091D2018091D101981750F4E92FF0E09C
:1002B000ED52FE4F208130E09F5F9093D20102C04B
:1002C0002FEF3FEFC90108958091D10190E0209177
:1002D000D201821B9109089585ED8093BC00809125
:1002E000BC0084FDFCCF1092190208954091880152
:1002F000262F30E0240F311D21323105DCF420910E
:1003000019022430C9F4FC0180E090E0861758F40B
:10031000309188012191DC01AA59BE4FA30FB11D74
:100320002C930196F3CF80918801680F6093880128
:1003300080E0089581E0089582E00895CF92DF92F1
:10034000EF92FF920F931F93CF93DF937C01262FA1
:10035000972F8A0180911A02882391F0C62FD72FF8
:100360006E01C40ED51ECC15DD0571F06991D70163
:10037000ED91FC910190F081E02DC7010995F3CF3B
:10038000642F822F0E947601C801DF91CF911F91C7
:100390000F91FF90EF90DF90CF900895CF93DF9370
:1003A0001F92CDB7DEB7698320911A022223D1F0C4
:1003B00020913C02203240F021E030E0FC01338308
:1003C000228380E090E015C080911B02E82FF0E0CE
:1003D000E45EFD4F998190838F5F80931B02809331
:1003E0003C0205C061E0CE0101960E94760181E0E9
:1003F00090E00F90DF91CF9108950E94B914109270
:10040000C0008CE18093C10086E38093C20010920B
:10041000C50086E68093C40080E00E94C70781E0A3
:100420000C94C707CF93DF93EC010E94FF01FE01FC
:10043000329680E091E0DF019C011D922150304016
:10044000E1F7DE01AE5FBE4F1196FC93EE9312967C
:10045000ED93FC93EC5FFE4F108231961082D093A7
:10046000AE01C093AD01DF91CF9108954F925F929D
:100470006F927F928F929F92AF92BF92CF92DF92B4
:10048000EF92FF92CF93DF93CDB7DEB727970FB6EA
:10049000F894DEBF0FBECDBF84EF89838EE28A83DE
:1004A000CE0101960E940207882309F45DC165E030
:1004B00070E080E090E00E94EF0786EF898362E0C1
:1004C000CE0101960E947806B82E882309F44FC009
:1004D000698170E080E090E00E940E1120E030E041
:1004E00040E853E40E949A116B017C014A81642F19
:1004F00070E080E090E00E940E119B01AC01C7010A
:10050000B6010E94F80F20916F0230917002409165
:100510007102509172020E94F70F20916B0230918C
:100520006C0240916D0250916E020E949A116B0113
:100530007C012091770230917802409179025091AC
:100540007A020E94F80F9B01AC01609173027091D6
:10055000740280917502909176020E9464109B0152
:10056000AC01C701B6010E94F80F6B017C01C0927B
:10057000C901D092CA01E092CB01F092CC01BB201C
:1005800009F4F2C084EF89838A83CE0101960E9428
:100590000207882309F4E8C06AE170E080E090E097
:1005A0000E94EF0786EF898363E0CE0101960E94E7
:1005B0007806882309F4D8C020E030E048EC51E404
:1005C000C701B6010E94F70F6B017C019B01AC01D2
:1005D0000E949A114B015C01698170E080E090E01B
:1005E0000E940E1120E030E040E853E40E949A118E
:1005F0002B013C016A8170E080E090E00E940E11C6
:100600009B01AC01C301B2010E94F80F2B013C0118
:100610006B8170E080E090E00E940E1120E030E0FD
:1006200040E85BE30E949A119B01AC01C301B20157
:100630000E94F80F6C837D838E839F8320918302B9
:10064000309184024091850250918602C501B40127
:100650000E949A112B013C0120917F02309180026F
:100660004091810250918202C701B6010E949A1105
:100670009B01AC01C301B2010E94F80F20917B02E3
:1006800030917C0240917D0250917E020E94F80FD1
:100690009B01AC016C817D818E819F810E94F70F4F
:1006A0002B013C0120918F023091900240919102E8
:1006B00050919202C501B4010E949A114B015C0154
:1006C00020918B0230918C0240918D0250918E02CC
:1006D000C701B6010E949A119B01AC01C501B4018A
:1006E0000E94F80F20918702309188024091890280
:1006F00050918A020E94F80F9B01AC01C301B20124
:100700000E9464106B017C019B01AC010E949A1154
:1007100020919B0230919C0240919D0250919E023B
:100720000E949A114B015C0120919702309198022E
:100730004091990250919A02C701B6010E949A1104
:100740009B01AC01C501B4010E94F80F20919302F6
:100750003091940240919502509196020E94F80FB8
:10076000562F472F382F292F652F742F832F922F25
:1007700027960FB6F894DEBF0FBECDBFDF91CF91A5
:10078000FF90EF90DF90CF90BF90AF909F908F90B1
:100790007F906F905F904F9008951F920F920FB6C9
:1007A0000F9211248F93EF93FF938091C00080915B
:1007B000C600803731F0803B21F0803D11F0803E53
:1007C00039F4E091AD01F091AE01E85FFE4F808316
:1007D000FF91EF918F910F900FBE0F901F90189582
:1007E0001F920F920FB60F9211242F933F934F93A6
:1007F0005F938F939F93EF93FF938091AD019091BF
:10080000AE01FC01EA5FFE4F2081222351F13297B5
:100810000190F081E02D208131818091C10030FF75
:1008200002C0816001C08E7F8093C1002093C6000A
:100830002091AD013091AE01F901EA5FFE4F808158
:10084000815080833297808191810296A9014E5F09
:100850005E4F8417950710F0C9010296918380833B
:1008600017C08091C100877D80698093C10080910D
:10087000C00087FF03C08091C600F9CF8091AD0111
:100880009091AE01FC01E85FFE4F1082319710821B
:10089000FF91EF919F918F915F914F913F912F9198
:1008A0000F900FBE0F901F901895CF92DF92EF928E
:1008B0000F931F93CF93DF93FC01E90162838FEFC6
:1008C0009FEFDC0183839483A583B683138E148EFC
:1008D000058F168E178EBF01695F7F4F6A019B01DE
:1008E00090E0D6018D916D01811104C0492F938F45
:1008F000342F11C0933129F09F5FD9018D939D0151
:10090000F0CF43E1F4CF833191057CF4DB01A80FF4
:10091000B91F5C933F5F232F241BDE01A20FB11D83
:100920005C91832F90E05111EECF248FDB01A80F53
:10093000B91F1C92B1E0EB1629F082E0E81204C066
:1009400080E401C080E2868F04301105A9F044F4F0
:100950000115110579F00130110591F483E00FC004
:100960000830110559F00930110541F00530110525
:1009700039F402C082E003C084E001C085E0878FC3
:10098000DF91CF911F910F91EF90DF90CF9008955D
:100990001F920F920FB60F9211242F933F934F93F4
:1009A0005F936F937F938F939F93AF93BF93EF93D7
:1009B000FF938091B900887F803609F49CC068F568
:1009C000883209F45BC090F4803109F454C038F4E3
:1009D000882309F4F6C0883009F44DC0F6C0883188
:1009E00009F44CC0803209F45DC0EFC0803409F4D2
:1009F00068C048F4803309F455C0883309F0E5C075
:100A000080931702D8C0803509F44FC0883509F4A7
:100A10005DC0883409F0D9C0D6C0883909F4C7C090
:100A2000A8F4883709F467C038F4883609F463C03D
:100A3000803709F460C0C9C0883809F4B8C080396B
:100A400009F45FC0803809F0C0C05BC0803B09F486
:100A500086C038F4803A09F466C0883A09F47FC049
:100A6000B4C0803C09F4A7C0883C09F4A4C0883B0A
:100A700009F48AC0AAC08091F40110C090911602B6
:100A800080911502981770F5E091160281E08E0FA3
:100A900080931602F0E0EB50FE4F80818093BB0004
:100AA00085EC86C0809317028EC0E091160281E02B
:100AB0008E0F809316028091BB00F0E0EB50FE4F4A
:100AC000808390911602809115026EC0E09116020B
:100AD00081E08E0F809316028091BB00F0E0EB5016
:100AE000FE4F80838091180281116DC081E0809358
:100AF000F30184EA61C083E0809319021092AC0193
:100B0000CFCF8091AC01803208F051C0E091AC01B0
:100B100081E08E0F8093AC018091BB00F0E0E45740
:100B2000FE4F8083BDCF85EC8093BC0010921902EC
:100B30008091AC01803230F4E091AC01F0E0E457F8
:100B4000FE4F10826091AC0170E0E0918A01F0915B
:100B50008B018CE891E009951092AC0136C084E0DD
:100B6000809319021092890110928801E091860108
:100B7000F0918701099580918801811105C081E07C
:100B80008093880110926601E091890181E08E0FC7
:100B900080938901F0E0EA59FE4F80818093BB0089
:100BA0009091890180918801981708F479CF85E8A0
:100BB0008093BC000AC085EC8093BC00109219029F
:100BC00004C0109217020E946C01FF91EF91BF9137
:100BD000AF919F918F917F916F915F914F913F91D5
:100BE0002F910F900FBE0F901F901895382F2091C6
:100BF0003C0290911C03213208F049C080911902F7
:100C00008111FCCF42E040931902309318023FEF6C
:100C1000309317021092160220931502ACE1B2E055
:100C200045EF51E0FA013E2F341B321718F43D9185
:100C30003193F9CF1092F4012091F401990F922B86
:100C40009093F4019091F301913061F41092F301CB
:100C50009091F4019093BB009091BC0093FDF8CF6C
:100C600095EC01C095EE9093BC00909119029230E2
:100C7000E1F3909117029F3F79F080911702803243
:100C800041F080911702803331F084E005C081E0AB
:100C900003C082E001C083E010921B0210923C026C
:100CA00010921A0208953FB7F8948091180390911A
:100CB0001903A0911A03B0911B0326B5A89B05C088
:100CC0002F3F19F00196A11DB11D3FBFBA2FA92FCB
:100CD000982F8827820F911DA11DB11DBC01CD0148
:100CE00042E0660F771F881F991F4A95D1F7089534
:100CF000EF92FF920F931F93CF93DF938C01C62F38
:100D000081E080931A0287E780931C0310921B02F4
:100D100010923C02F80160818DE392E00E94CE01C6
:100D200081E00E94F60580939F02811163C04C2FE1
:100D30000C2E000C550B809119028111FCCF2C2F29
:100D4000C13208F020E281E08093190280931802FA
:100D50009FEF9093170210921602920F9093150234
:100D60008093F4019091F4019E6E9093F401809130
:100D7000F301813061F41092F3018091F4018093CA
:100D8000BB008091BC0083FDF8CF85EC01C085EEEF
:100D90008093BC00809119028130E1F380911602AA
:100DA000821710F420911602A5EFB1E063ED71E017
:100DB000FB018E2F861B821718F48D918193F9CF3A
:100DC0001092D2012093D10130E024173507E9F7C2
:100DD000D0E0DC176CF47801ED0EF11CD7FDFA942D
:100DE0008DE392E00E945001F7018083DF5FF1CF35
:100DF00081E001C080E0DF91CF911F910F91FF90C2
:100E0000EF90089521E020931A0227E720931C0316
:100E100010921B0210923C0242E050E0BC018DE3B4
:100E200092E00E949E0181E00E94F605982F809337
:100E30009F0281E0911180E008950F931F93CF935B
:100E4000DF9300D0CDB7DEB78B01898362E0CE019E
:100E500001960E947806882359F0898190E0982FA6
:100E600088272A81822BF8019183808381E003C047
:100E7000F801118210820F900F90DF91CF911F9196
:100E80000F9108950F931F93CF93DF9300D0CDB7A9
:100E9000DEB78B01898362E0CE0101960E9478065D
:100EA000882359F0898190E0982F88272A81822B06
:100EB000F8019183808381E003C0F80111821082E0
:100EC0000F900F90DF91CF911F910F91089590E0B7
:100ED000FC01EA5DFE4F2491FC01EE5EFE4F349171
:100EE000FC01E250FF4FE491EE23B1F1222339F1EE
:100EF000233091F038F42130A9F0223001F584B587
:100F00008F7D12C0273091F02830A1F02430B9F441
:100F1000809180008F7D03C0809180008F778093C7
:100F200080000DC084B58F7784BD09C08091B0006A
:100F30008F7703C08091B0008F7D8093B000F0E088
:100F4000EE0FFF1FEC50FF4FA591B4918FB7F894AF
:100F5000EC913E2B3C938FBF0895E091A702F09156
:100F6000A802309799F0803288F4A82FB0E0A056FC
:100F7000BD4F1C968C91E80FF11DE80FF11D0190FB
:100F8000F081E02D43835483658376830895CF9366
:100F9000DF9390E0FC01EE5EFE4F2491FC01E250F5
:100FA000FF4F84918823C1F090E0880F991FFC01C6
:100FB000E651FF4FC591D491FC01EC50FF4FA59134
:100FC000B4919FB7F8943881822F809583238883CA
:100FD000EC91E22BEC939FBFDF91CF9108958F921C
:100FE0009F92AF92BF92CF92DF92EF92FF926B01EE
:100FF0007C010E9453064B015C01C114D104E10441
:10100000F104F1F00E945306DC01CB018819990923
:10101000AA09BB09883E9340A105B10570F321E000
:10102000C21AD108E108F10888EE880E83E0981E04
:10103000A11CB11CC114D104E104F10419F7DDCFE6
:10104000FF90EF90DF90CF90BF90AF909F908F90E8
:1010500008952FB7F894609114037091150380914F
:101060001603909117032FBF08951F920F920FB68A
:101070000F9211242F933F938F939F93AF93BF931E
:101080008091140390911503A0911603B09117035A
:101090003091130323E0230F2D3720F40196A11D77
:1010A000B11D05C026E8230F0296A11DB11D209396
:1010B00013038093140390931503A0931603B09326
:1010C00017038091180390911903A0911A03B0910E
:1010D0001B030196A11DB11D809318039093190362
:1010E000A0931A03B0931B03BF91AF919F918F916F
:1010F0003F912F910F900FBE0F901F901895CF9397
:10110000DF93CDB7DEB72C970FB6F894DEBF0FBED6
:10111000CDBF789484B5826084BD84B5816084BD80
:1011200085B5826085BD85B5816085BD80916E0085
:10113000816080936E0010928100809181008260B6
:1011400080938100809181008160809381008091F3
:1011500080008160809380008091B10084608093E2
:10116000B1008091B00081608093B00080917A00DE
:10117000846080937A0080917A00826080937A0004
:1011800080917A00816080937A0080917A008068F3
:1011900080937A001092C1001092D2011092D10176
:1011A00010921B0210923C021092190281E080936F
:1011B00018021092F30182E10E94670783E10E9406
:1011C00067078091B9008E7F8093B9008091B90044
:1011D0008D7F8093B90088E48093B80085E4809384
:1011E000BC0065E572E08AEA0E941D07882309F4C5
:1011F00047C067E572E08CEA0E941D07882309F466
:101200003FC069E572E08EEA0E941D078823C1F1A4
:1012100065E672E080EB0E944207882389F167E669
:1012200072E082EB0E944207882351F169E672E086
:1012300084EB0E944207882319F16BE572E086EB8C
:101240000E941D078823E1F06DE572E088EB0E94A3
:101250001D078823A9F06FE572E08AEB0E941D0745
:10126000882371F061E672E08CEB0E941D078823F1
:1012700039F063E672E08EEB0E941D07811102C512
:1012800080E2EEECF2E0DF011D928A95E9F740E2A0
:1012900050E060E270E08EEE92E00E94D114109275
:1012A000AB028091A5029091A602892BA1F480E265
:1012B00090E00E948C136C01E12C00E010E028E229
:1012C00031E04AE251E060E070E00E945504D092C3
:1012D000A602C092A50289E492E09093A8028093AE
:1012E000A70280E2ECEAF2E0DF011D928A95E9F7BD
:1012F0004091A9025091AA02A9E4B2E080E090E0F6
:101300009C01240F351FED91FD91309761F08032E3
:10131000910549F0E281E03220F4F0E0E056FD4F23
:1013200084870196EDCF3093AA022093A90289E029
:1013300091E00E948C1329E031E0FC01A901119297
:1013400041505040E1F72EE031E0DC012D933C9319
:101350009093CD028093CC020E94120268EE73E05B
:1013600080E090E00E94EF070E9436026093B9018E
:101370007093BA018093BB019093BC010E9429082D
:101380006093BD017093BE018093BF019093C00133
:1013900080ED92E092E0292E281A57E0352E0AE1DE
:1013A00010E01092B5011092B6011092B7011092A0
:1013B000B80134E1E32EF12C40E4D42ED0927C002D
:1013C00080917A00806480937A0080917A0086FD13
:1013D000FCCF609178008091790070E0782B709359
:1013E000B4016093B301072E000C880B990B0E9487
:1013F0000E112AE038E240EA5BE30E949A1120E0F5
:1014000030E048EC52E40E949A119B01AC010E942A
:10141000F80F26E037E441E85FE30E949A116093F9
:10142000AF017093B0018093B1019093B20120910C
:10143000B5013091B6014091B7015091B8010E94B9
:10144000F80F4B015C016093B5017093B601809376
:10145000B7019093B8016AE070E080E090E00E94EC
:10146000EF07B1E0EB1AF10809F0A8CF20E030E077
:1014700040EA51E4C501B4010E9464106093AF01D9
:101480007093B0018093B1019093B2010E94D61085
:10149000AB01BC0181E00E94AD074090CD015090AE
:1014A000CE016090CF017090D0012091BD013091AC
:1014B000BE014091BF015091C00129873A874B87F7
:1014C0005C870E9436026B017C016093C1017093BE
:1014D000C2018093C3019093C4010E9429086D83C7
:1014E0007E838F8398876093BD017093BE01809344
:1014F000BF019093C0012091B9013091BA01409190
:10150000BB015091BC01C701B6010E9464102EEAD4
:101510003CED42E45EE30E9407129B01AC0160E0F7
:1015200070E080E89FE30E94F70F20E03AE24DE28E
:1015300057E40E949A114B015C016093CD017093B6
:10154000CE018093CF019093D001A30192010E941C
:10155000F70F20E030E048EC52E40E949A1120E0BE
:1015600030E04AE754E40E949A112B013C016D815E
:101570007E818F81988529853A854B855C85621BA4
:10158000730B840B950B0E940C119B01AC01C301E2
:10159000B2010E9464102B013C016093C50170935D
:1015A000C6018093C7019093C801C501B4010E9490
:1015B000D610AB01BC0182E00E94AD076091C90169
:1015C0007091CA018091CB019091CC010E94D610FC
:1015D000AB01BC0183E00E94AD07C301B2010E94D0
:1015E000D610AB01BC0184E00E94AD07C701B60173
:1015F0000E94D610AB01BC0185E00E94AD0780912E
:10160000CC029091CD02DC01ED91FC910480F5813A
:10161000E02D099580930E03C090A002D090A10206
:10162000E090A202F090A302B6E9CB0ED11CE11C1F
:10163000F11C0E9429086C157D058E059F0508F494
:1016400019C30E9429086093A0027093A10280939D
:10165000A2029093A3024091A7025091A8024115C3
:10166000510581F580911003C090CC02D090CD023D
:10167000882309F46EC2D601ED91FC910280F381BA
:10168000E02D40E06EE7C60109958091CC02909173
:10169000CD02DC01ED91FC910280F381E02D41E06F
:1016A00061E909958091CC029091CD02DC01ED9128
:1016B000FC910280F381E02D41E061E309951092F5
:1016C00010038CC28091A40291E0980F9093A40221
:1016D000811126C01092D0021092D602A091A502CC
:1016E000B091A6025B968C915B97E8E08E9FC0015B
:1016F00011245C969C915C97892B8093D70280E0A3
:101700002AE0280FFD01E80FF11D9781992309F4C4
:101710003FC08F5FE22FF0E0E056FD4F96A7F0CF7D
:101720006091A9027091AA0280FD34C0869590E074
:10173000681779077CF181509048880F991FFA014A
:10174000E80FF91FA081B1811092D00212968C91FE
:1017500012978093D6025B968C915B97F8E08F9FEF
:10176000C00111245C969C915C97892B8093D702D1
:1017700080E02AE0280FFD01E80FF11D97819923F1
:1017800039F08F5FE22FF0E0E056FD4F96A7F1CFE2
:10179000F22E41C180E48093D0021E821D8288E037
:1017A000F82E8091AB02FA01E80FF11DE80FF11D50
:1017B0000190F081E02D83809480A580B6808B20FD
:1017C0008A208920809409F401C1C2802F2D30E045
:1017D000958DEE24E394EF0CAFE0AC1578F4205631
:1017E0003D4F9F70D9019E969C93B2E0BB2EBF0CDB
:1017F00092812E2D30E020563D4F09C0BE2C205640
:101800003D4FB0E1CB9E600111249F709C29D9010E
:101810009E969C93958D2B2D30E0943009F44CC00E
:1018200028F4992369F0913021F1CDC0983009F462
:101830008CC0993009F4B3C0953009F0C4C062C0BF
:10184000C380D480E580F6809C2D9F71F7FC02C098
:10185000F12C02C0A0E8FA2E9F29D901A056BD4F55
:101860009E969C939E97E68D9E2B9E969C9391E0D0
:10187000ABC09381D901A056BD4F9E969C93790130
:10188000BFEFEB1AFB0A83809480A580B680992D68
:101890009F71B7FC02C0D12C02C0B0E8DB2E9D299D
:1018A000D701A056BD4F9E969C939E97E68D9E2B8A
:1018B0009E969C9392E088C09381D901A056BD4F1B
:1018C0009E969C939E9794819F969C937901B2E0FB
:1018D000EB0EF11C83809480A580B6809A2D9F71B9
:1018E000B7FC02C0D12C02C0A0E8DA2E9D29D70196
:1018F000A056BD4F9E969C939E97E68D9E2B9E96DE
:101900009C9321C09381D901A056BD4F9E969C9374
:101910009E9794819F969C937901B2E0EB0EF11C07
:1019200043805480658076804301BB2497FCB0944B
:10193000AB2C77FC02C090E001C090E8F701E056C4
:10194000FD4F892A86A693E03FC09381D901A05616
:10195000BD4F9E969C939E9794819F969C939F9734
:101960009581D0969C937901B3E0EB0EF11C8380B6
:101970009480A580B6809B2D9F71B7FC02C0D12CAE
:1019800002C030E8D32E9D29D701A056BD4F9E96A8
:101990009C939E97E68D9E2B9E969C9312C093815E
:1019A000D901A056BD4F9E969C939E9794819F9679
:1019B0009C939F979581D0969C93D0979681D19632
:1019C0009C9394E001C090E0F92EF20E8F5F80931B
:1019D000AB0290E08617970714F01092AB02ED81EE
:1019E000FE813196FE83ED83E617F707A4F420917C
:1019F000AB028F2D90E0FA01E20FF11DE20FF11D15
:101A00000190F081E02D278DD801A21BB1098A1722
:101A10009B070CF4C6CE22E5E22EE9828CE18A8394
:101A20008CE68B8383E28C838EE78093CE028FE2F9
:101A30008093CF028091D0029EEF9F0D892B8093DF
:101A4000D00287EB8093D10285E58093D20280910A
:101A500011038093D302809112038093D4020E94D9
:101A600029156F5F6093D5028091D60286279DE687
:101A700098279093D6029091D00291FD03C0E8265A
:101A8000E092D6029091D70280E289278093D70214
:101A9000E7EDF2E029E0462F42705FE32F15D8F41E
:101AA0008081962F9827822F8370A1E0B0E0AC0F41
:101AB000BD1FA80FB11D3C9120FF04C088EF820F0D
:101AC0008C7F01C080E0830F8927411185278083A7
:101AD0002F5F3196E3CFEF2DF0E0A0EDB2E080E094
:101AE000922D9A0F9F1560F49D91892798E087FFAA
:101AF00003C0880F832501C0880F9150C1F7F0CF34
:101B0000E056FD4F86A78091CC029091CD02DC017A
:101B1000ED91FC910280F381E02D40E06EE70995A4
:101B2000EE24E394FE1408F49DCD8091CC029091B4
:101B3000CD02DC01ED91FC91AE2DB0E0A056BD4F81
:101B40000280F381E02D41E09E966C910995E3942B
:101B5000E9CFF0900F03FF2009F440C0AF2C0F2C09
:101B6000000CBB08C5010E94C214892B21F0C501DD
:101B70000E94C914F82ED601ED91FC910280F381E8
:101B8000E02D40E06EE7C60109958091CC0290916E
:101B9000CD02DC01ED91FC910280F381E02D41E06A
:101BA00062E009958091CC029091CD02DC01ED912B
:101BB000FC910280F381E02D41E061E00995809184
:101BC000CC029091CD02DC01ED91FC910280F38179
:101BD000E02D41E06F2D099510920F038091CC020A
:101BE0009091CD02DC01ED91FC910280F381E02D1A
:101BF00040E06EEF09958091EE02882331F19EEE70
:101C0000E92E92E0F92E8091CC029091CD02F7015D
:101C100061917F01DC01ED91FC910280F381E02D67
:101C200041E00995BEE0EB16B3E0FB0661F7809159
:101C3000CC029091CD02DC01ED91FC910280F38108
:101C4000E02D40E06FEF099515C080E2E82EF12C01
:101C50008091CC029091CD02DC01ED91FC9102804B
:101C6000F381E02D41E060E00995B1E0EB1AF10865
:101C700079F7DDCF80E090E0892B09F492CB0E94C8
:101C800000008FCB6091590270915A02072E000C10
:101C9000880B990B0E940E1120E030E040EA5BE3D4
:101CA0000E949A112B013C016091650270916602BD
:101CB00080E090E00E940C112FE632E143E053E314
:101CC0000E949A116B017C0160915B0270915C0231
:101CD000072E000C880B990B0E940E1120E030E0BB
:101CE00048EC57E30E949A114B015C016091670236
:101CF0007091680280E090E00E940C112DEC3CECA9
:101D00004CE454E30E949A1160936B0270936C024E
:101D100080936D0290936E026091690270916A02E5
:101D200080E090E00E940C1160936F02709370024B
:101D300080937102909372026091610270916202CD
:101D4000072E000C880B990B0E940E112AE037ED2C
:101D500043EA5DE30E949A116093730270937402E8
:101D60008093750290937602609163027091640291
:101D7000072E000C880B990B0E940E1120E030E01A
:101D800040E253E40E9464106093770270937802FB
:101D90008093790290937A02609155027091560275
:101DA000072E000C880B990B0E940E1160937B028A
:101DB00070937C0280937D0290937E026091570223
:101DC00070915802072E000C880B990B0E940E117F
:101DD00020E030E040EA5CE30E949A1160937F02C9
:101DE00070938002809381029093820260915D02E1
:101DF00070915E02072E000C880B990B0E940E1149
:101E000020E030E048E45AE30E949A116093830294
:101E100070938402809385029093860220E030E0E4
:101E200040E057E4C701B6010E949A11609387020F
:101E3000709388028093890290938A02A301920191
:101E4000C701B6010E949A1160938B0270938C02B5
:101E500080938D0290938E02A5019401C701B60173
:101E60000E949A1160938F02709390028093910266
:101E7000909392028CEE91E5A7E1B0E480939302F7
:101E800090939402A0939502B093960280E394E31A
:101E9000AEE7BFE38093970290939802A0939902D4
:101EA000B0939A0280E097E5A4E9B6E380939B02A1
:101EB00090939C02A0939D02B0939E02E1C9CF92A1
:101EC000DF92EF920F931F93CF93DF93EDE3F2E056
:101ED0001382128288EE93E0A0E0B0E084839583C1
:101EE000A683B7838CE191E091838083E0EAF2E0FE
:101EF0001082118212821382148216821582108639
:101F0000178212861186138615A614A610920E0348
:101F100010920F031092100386E78093110382E35F
:101F20008093120380E290E00E948C136C0182E0A7
:101F3000E82E01E010E021E331E043E351E061E00D
:101F400070E0C6010E945504C9E4D2E0D982C8827B
:101F500080E290E00E948C136C01E12C2BE331E0D5
:101F60004DE351E062E070E00E945504DB82CA82DA
:101F700080E290E00E948C136C0126E431E049E499
:101F800051E063E070E00E945504DD82CC8280E283
:101F900090E00E948C136C0192E0E92E2EE431E077
:101FA00042E551E064E070E0C6010E945504DF8222
:101FB000CE8280E290E00E948C136C01E12C28E537
:101FC00031E04DE551E065E070E00E945504D986AE
:101FD000C886DF91CF911F910F91EF90DF90CF9046
:101FE0000895EE0FFF1F0590F491E02D09945058CD
:101FF000BB27AA270E940F100C9460110E94521157
:1020000038F00E94591120F039F49F3F19F426F45A
:102010000C944F110EF4E095E7FB0C944911E92F55
:102020000E94711158F3BA17620773078407950766
:1020300020F079F4A6F50C9493110EF4E0950B2E94
:10204000BA2FA02D0B01B90190010C01CA01A0010A
:102050001124FF27591B99F0593F50F4503E68F165
:102060001A16F040A22F232F342F4427585FF3CFA6
:10207000469537952795A795F0405395C9F77EF477
:102080001F16BA0B620B730B840BBAF09150A1F0C0
:10209000FF0FBB1F661F771F881FC2F70EC0BA0F46
:1020A000621F731F841F48F4879577956795B795CE
:1020B000F7959E3F08F0B0CF9395880F08F09927C9
:1020C000EE0F9795879508950E9478100C946011F3
:1020D0000E94591158F00E94521140F029F45F3FBC
:1020E00029F00C94491151110C9494110C944F1136
:1020F0000E94711168F39923B1F3552391F3951B55
:10210000550BBB27AA2762177307840738F09F5F18
:102110005F4F220F331F441FAA1FA9F335D00E2E85
:102120003AF0E0E832D091505040E695001CCAF7F2
:102130002BD0FE2F29D0660F771F881FBB1F2617B5
:1021400037074807AB07B0E809F0BB0B802DBF018C
:10215000FF2793585F4F3AF09E3F510578F00C945B
:1021600049110C9494115F3FE4F3983ED4F38695A3
:1021700077956795B795F7959F5FC9F7880F911D7C
:102180009695879597F90895E1E0660F771F881F68
:10219000BB1F621773078407BA0720F0621B730B1B
:1021A000840BBA0BEE1F88F7E09508950E94DD10AE
:1021B0006894B1110C94941108950E94791188F0DB
:1021C0009F5798F0B92F9927B751B0F0E1F0660FFB
:1021D000771F881F991F1AF0BA95C9F714C0B1303C
:1021E00091F00E949311B1E008950C949311672F20
:1021F000782F8827B85F39F0B93FCCF3869577956B
:102200006795B395D9F73EF4909580957095619553
:102210007F4F8F4F9F4F0895E89409C097FB3EF47E
:1022200090958095709561957F4F8F4F9F4F992323
:10223000A9F0F92F96E9BB279395F69587957795A1
:102240006795B795F111F8CFFAF4BB0F11F460FF61
:102250001BC06F5F7F4F8F4F9F4F16C0882311F0B9
:1022600096E911C0772321F09EE8872F762F05C0CD
:10227000662371F096E8862F70E060E02AF09A9568
:10228000660F771F881FDAF7880F9695879597F95D
:10229000089597F99F6780E870E060E008959FEFE8
:1022A00080EC089500240A941616170618060906ED
:1022B000089500240A9412161306140605060895BC
:1022C000092E0394000C11F4882352F0BB0F40F444
:1022D000BF2B11F460FF04C06F5F7F4F8F4F9F4F84
:1022E000089557FD9058440F551F59F05F3F71F006
:1022F0004795880F97FB991F61F09F3F79F087956D
:102300000895121613061406551FF2CF4695F1DFF5
:1023100008C0161617061806991FF1CF8695710585
:10232000610508940895E894BB2766277727CB01B9
:1023300097F908950E94AD110C9460110E945211FA
:1023400038F00E94591120F0952311F00C94491196
:102350000C944F1111240C9494110E94711170F37C
:10236000959FC1F3950F50E0551F629FF001729F3A
:10237000BB27F00DB11D639FAA27F00DB11DAA1F49
:10238000649F6627B00DA11D661F829F2227B00D96
:10239000A11D621F739FB00DA11D621F839FA00D21
:1023A000611D221F749F3327A00D611D231F849F71
:1023B000600D211D822F762F6A2F11249F575040C8
:1023C0009AF0F1F088234AF0EE0FFF1FBB1F661F43
:1023D000771F881F91505040A9F79E3F510580F00C
:1023E0000C9449110C9494115F3FE4F3983ED4F39C
:1023F000869577956795B795F795E7959F5FC1F7B0
:10240000FE2B880F911D9695879597F90895FA01EF
:10241000EE0FFF1F309621053105A1F16115710501
:1024200061F48038BFE39B0749F1689490388105D7
:1024300061F08038BFEF9B0741F099234AF5FF3FD9
:10244000E1053105210519F1E8940894E795D901D2
:10245000AA2329F4AB2FBE2FF85FD0F310C0FF5F83
:1024600070F4A695E0F7F73950F019F0FF3A38F418
:102470009F779F930DD00F9007FC9058089546F0DA
:102480000C944F1160E070E080E89FE308954FE7FF
:102490009F775F934F933F932F930E9402132F9147
:1024A0003F914F915F910E949A110C945F1229F411
:1024B00016F00C9449110C9493110C944F110E9436
:1024C0007911A8F39638A0F707F80F92E8942BE358
:1024D0003AEA48EB5FE70E94B0110F920F920F9219
:1024E0004DB75EB70F920E944A13E8E6F0E00E94F3
:1024F00091124F915F91EF91FF91E595EE1FFF1FB4
:1025000049F0FE57E0684427EE0F441FFA95E1F7C3
:102510004195550B0E94C4120F9007FE0C94B812FF
:102520000895DF93CF931F930F93FF92EF92DF9263
:102530007B018C01689406C0DA2EEF010E94AD1178
:10254000FE01E894A5912591359145915591A6F309
:10255000EF010E940F10FE019701A801DA9469F7BC
:10256000DF90EF90FF900F911F91CF91DF91089531
:102570009B01AC0160E070E080E89FE30C94641084
:102580000C9449110C947E130E947911D8F399236D
:10259000C9F3940F511DA3F39150504094F059F09A
:1025A000882332F0660F771F881F91505040C1F783
:1025B0009E3F51052CF7880F911D9695879597F9A9
:1025C00008955F3FACF0983E9CF0BB2786957795C9
:1025D0006795B79508F4B1609395C1F7BB0F58F7AD
:1025E00011F460FFE8CF6F5F7F4F8F4F9F4FE3CFB6
:1025F0000C94941116F00C947E130C944F11689463
:102600000C9449110E947911A8F39923C1F3AEF3F8
:10261000DF93CF931F930F93FF92C92FDD2788235A
:102620002AF02197660F771F881FDAF720E030E045
:1026300040E85FEB9FE3883920F0803E38F0219638
:102640008F770E94F80FE0E9F0E004C00E94F80FD5
:10265000EDEBF0E00E9491128B01BE01EC01FB2E2C
:102660006F5771097595771F880B990B0E940E1192
:1026700028E132E741E35FE30E94AD11AF2D9801FD
:10268000AE01FF900F911F91CF91DF910E940F102B
:102690000C946011FA01DC01AA0FBB1F9B01AC0175
:1026A000BF5728F4222733274427507820C0B7513A
:1026B00090F4AB2F0024469537952795011CA395E0
:1026C000D2F3002071F0220F331F441FB395DAF3C9
:1026D0000ED00C94F70F61307105A0E88A07B94657
:1026E00030F49B01AC0166277727882790783096D5
:1026F00021F0208331834283538308959F3F31F03B
:10270000915020F4879577956795B795880F911D1F
:102710009695879597F90895CF93DF938230910529
:1027200010F482E090E0E0911F03F091200320E09C
:1027300030E0C0E0D0E0309711F14081518148177E
:102740005907C0F04817590761F482819381209797
:1027500019F09B838A832BC09093200380931F03DF
:1027600026C02115310519F04217530718F49A01B4
:10277000BE01DF01EF010280F381E02DDCCF2115E6
:10278000310509F1281B390B2430310590F41296DC
:102790008D919C9113976115710521F0FB01938335
:1027A000828304C09093200380931F03FD0132961F
:1027B00044C0FD01E20FF31F819391932250310930
:1027C0002D933C933AC020911D0330911E03232B7F
:1027D00041F4209102013091030130931E032093B4
:1027E0001D0320910001309101012115310541F4B3
:1027F0002DB73EB74091040150910501241B350BC4
:10280000E0911D03F0911E03E217F307A0F42E1BC5
:102810003F0B2817390778F0AC014E5F5F4F241744
:10282000350748F04E0F5F1F50931E0340931D0362
:102830008193919302C0E0E0F0E0CF01DF91CF916E
:1028400008950F931F93CF93DF93009709F48CC0E3
:10285000FC0132971382128200911F031091200312
:102860000115110581F420813181820F931F209180
:102870001D0330911E032817390779F5F0931E03C5
:10288000E0931D0371C0D80140E050E0AE17BF07D0
:1028900050F412962D913C911397AD0121153105FD
:1028A00009F1D901F3CF9D01DA01338322836081DD
:1028B0007181860F971F8217930769F4EC012881B5
:1028C0003981260F371F2E5F3F4F318320838A8146
:1028D0009B8193838283452B29F4F0932003E0931B
:1028E0001F0342C01396FC93EE931297ED0149919A
:1028F00059919E01240F351FE217F30771F480816F
:102900009181840F951F029611969C938E938281DC
:10291000938113969C938E931297E0E0F0E0D80198
:1029200012968D919C911397009719F0F8018C01E4
:10293000F6CF8D919C9198012E5F3F4F820F931F90
:1029400020911D0330911E032817390769F4309731
:1029500029F41092200310921F0302C013821282E6
:1029600010931E0300931D03DF91CF911F910F91D0
:10297000089581E090E0F8940C949A1585FD0C94EC
:10298000D814806291110C94D81481568A51D8F7CA
:1029900008959111089581568A5108F480528558FE
:1029A0000895DC0101C06D9341505040E0F7089557
:1029B0009927882708958F929F92AF92BF92CF92C6
:1029C000DF92EF92FF92CF93DF93EC0168817981E0
:1029D0008A819B81611571058105910521F464E26D
:1029E00079ED8BE597E02DE133EF41E050E00E9477
:1029F000371549015A019B01AC01A7EAB1E40E94D5
:102A000056156B017C01ACEEB4EFA50194010E9458
:102A10006415DC01CB018C0D9D1DAE1DBF1DB7FFE4
:102A200003C00197A109B04888839983AA83BB8317
:102A3000BC01CD019F77DF91CF91FF90EF90DF90A8
:102A4000CF90BF90AF909F908F9008950E94DB141D
:102A5000089586E091E00E94DB14089560930601DA
:102A60007093070180930801909309010895052E42
:102A700097FB1EF400940E944E1557FD07D00E944C
:102A8000691507FC03D04EF40C944E1550954095F3
:102A9000309521953F4F4F4F5F4F0895909580950A
:102AA000709561957F4F8F4F9F4F08950E948B15B2
:102AB000A59F900DB49F900DA49F800D911D112492
:102AC0000895B7FF0C9456150E945615821B930B60
:102AD0000895A1E21A2EAA1BBB1BFD010DC0AA1F5F
:102AE000BB1FEE1FFF1FA217B307E407F50720F077
:102AF000A21BB30BE40BF50B661F771F881F991FF2
:102B00001A9469F760957095809590959B01AC013A
:102B1000BD01CF010895A29FB001B39FC001A39F43
:102B2000700D811D1124911DB29F700D811D112406
:082B3000911D0895F894FFCFF8
:102B380000002103800001000000000000001202D4
:102B4800F30030013F013E0100000000CE019E016C
:102B580064015001410140012000534753656E73E1
:102B6800005600566F6C74616765006D00416C74A7
:102B7800697475646500B0430054656D70006D2F0D
:102B88007300566172696F006D6261720050726500
:062B980073737572650005
:00000001FF
